:1000000033C000004CC000004AC0000048C00000DF
:1000100046C0000044C0000042C000006DC10000A6
:100020003EC000003CC000003AC0000038C00000E4
:1000300036C0000034C0000032C0000030C00000F4
:100040002EC000002CC0000065C0000028C00000C9
:1000500039C0000024C0000022C0000020C0000001
:100060001EC000001CC0000011241FBECFEFD8E04E
:10007000DEBFCDBF11E0A0E0B1E0E8E4F4E002C0F3
:1000800005900D92AE31B107D9F711E0AEE1B1E0C4
:1000900001C01D92AA3AB107E1F702D0D3C1B0CF97
:1000A0008FEF84B9EFD0DAD012D17894FFCF80915E
:1000B000A801882321F081508093A801089510920F
:1000C000A60108951F920F920FB60F9211248F93DD
:1000D0009F93EF93FF939091A70180911E01891741
:1000E00058F0E92FF0E0E25EFE4F80818093C60079
:1000F0009F5F9093A70105C08091C10080618093AC
:10010000C100FF91EF919F918F910F900FBE0F90C3
:100110001F9018951F920F920FB60F9211242F93D4
:100120003F934F935F936F937F938F939F93AF937F
:10013000BF93EF93FF9382E38093A8019091A60170
:10014000973850F48091C600E92FF0E0E25EFE4F50
:1001500080839F5F9093A60190911E018091A601DC
:10016000981740F48091C1008F7E8093C10080E099
:1001700061E08FD0FF91EF91BF91AF919F918F91EF
:100180007F916F915F914F913F912F910F900FBE93
:100190000F901F9018951F93CF93DF931092A60195
:1001A0001092A70160911E01C62FD0E0FE01E25E11
:1001B000FE4F108161508FE191E026D1181711F0A8
:1001C00083E125C09091000180911F01981711F0E3
:1001D00082E11DC060910101862F90E022978C176B
:1001E0009D07D1F5E0910301F091040180E291E0D7
:1001F000AC012091020109956091020190910001EA
:10020000882329F4162F1E5F892F805C04C08093F9
:10021000200113E08FEE10931E0180931F01612FC8
:1002200061508FE191E0F0D0E12FF0E0E25EFE4F0F
:1002300080839091A701E92FF0E0E25EFE4F80817C
:100240008093C6009F5F9093A70180E060E021D07B
:10025000DF91CF911F91089584E1D9CF509A0FD0AB
:100260009093C5008093C400E2ECF0E0808186604A
:100270008083E1ECF0E08081886D8083089587E7DA
:1002800090E008950895FA0181E08083818380E001
:10029000089590E0662369F0FC0133E0EE0FFF1F44
:1002A0003A95E1F7E81BF90BEB5FFE4F8681826020
:1002B0000CC0FC0123E0EE0FFF1F2A95E1F7E81BBD
:1002C000F90BEB5FFE4F86818D7F8683089584EF67
:1002D0008093B3001092B200E0EBF0E08081826086
:1002E0008083E0E7F0E0808182608083E1EBF0E0F2
:1002F00080818760808308950F920FB6F8940F92E3
:100300001F9211242F923F924F925F926F927F9291
:100310008F929F92AF92BF92CF92DF92EF92FF9215
:100320000F931F932F933F934F935F936F937F93FD
:100330008F939F93AF93BF93CF93DF93EF93FF93ED
:10034000C5E0D1E010E08E81833089F528813981C4
:100350008A819B812817390750F19091A901E92FD3
:10036000F0E0E65EFE4F8081181708F5F8941982D8
:10037000188282E08E83E92FEF5FE093A901F0E01D
:10038000E65EFE4F10837894EC81FD810995F89428
:100390008E8181608E839091A901E92FF0E0E65E65
:1003A000FE4F8FEF808391509093A90178948881BC
:1003B00099810A96998388831F5F2796133009F0E5
:1003C000C2CFFF91EF91DF91CF91BF91AF919F91FC
:1003D0008F917F916F915F914F913F912F911F91DD
:1003E0000F91FF90EF90DF90CF90BF90AF909F90D4
:1003F0008F907F906F905F904F903F902F901F90C5
:100400000F900FBE0F901895FC0190E00FC0308147
:1004100028E0892F8327969580FF02C08BEA9827D2
:10042000215011F03695F5CF31966150662379F75A
:10043000892F08958FEF87B9089585B190E28927B4
:0804400085B90895F894FFCF7F
:10044800010002430100000A00CB00010000F40192
:0E0458001D020300000A00570003FF00000011
:00000001FF
